:100000000C946C000C9494000C9494000C94940048
:100010000C9494000C9494000C9494000C94940010
:100020000C9494000C9494000C9494000C94940000
:100030000C9494000C9494000C9494000C949400F0
:100040000C949B040C9494000C940B050C94E50404
:100050000C9494000C9494000C9494000C949400D0
:100060000C9494000C94940005A84CCDB2D44EB9D5
:100070003836A9020C50B9918688083CA6AAAA2A4B
:10008000BE000000803F00000008000201000003E5
:100090000407000000000000000000000000250030
:1000A00028002B0000000000240027002A00040480
:1000B0000404040404040202020202020303030310
:1000C00003030102040810204080010204081020EC
:1000D000010204081020220A11241FBECFEFD8E02D
:1000E000DEBFCDBF11E0A0E0B1E0E2E6FCE102C07E
:1000F00005900D92A436B107D9F722E0A4E6B1E04D
:1001000001C01D92AC32B207E1F710E0CCE6D0E0BE
:1001100004C02197FE010E94290ECB36D107C9F7F2
:100120000E943D050C942F0E0C94000090E0FC0101
:10013000EE53FF4F249182559F4FFC0184918823F9
:1001400099F090E0880F991FFC01EC55FF4FA591A5
:10015000B491FC01E656FF4F859194918FB7F894C6
:10016000EC91E22BEC938FBF089590E0FC01EA57ED
:10017000FF4F2491FC01EE53FF4F3491FC01E255F7
:10018000FF4FE491EE23C9F0222339F0233001F12F
:10019000A8F4213019F1223029F1F0E0EE0FFF1F11
:1001A000E656FF4FA591B4918FB7F894EC91611189
:1001B00026C030953E233C938FBF08952730A9F089
:1001C0002830C9F0243049F7809180008F7D03C02A
:1001D000809180008F7780938000DFCF84B58F7708
:1001E00084BDDBCF84B58F7DFBCF8091B0008F774E
:1001F0008093B000D2CF8091B0008F7DF9CF3E2B9D
:10020000DACFAF92BF92CF92DF92EF92FF920F932D
:100210001F93CF93DF936C017B018B01040F151F9C
:10022000EB015E01AE18BF08C017D10759F0699104
:10023000D601ED91FC910190F081E02DC601099568
:10024000892B79F7C501DF91CF911F910F91FF9015
:10025000EF90DF90CF90BF90AF900895FC01538D49
:10026000448D252F30E0842F90E0821B930B541790
:1002700010F0CF96089501970895FC01918D828D1D
:10028000981761F0A28DAE0FBF2FB11D5D968C91B6
:10029000928D9F5F9F73928F90E008958FEF9FEFF5
:1002A0000895FC01918D828D981731F0828DE80FB1
:1002B000F11D858D90E008958FEF9FEF0895FC016B
:1002C000918D228D892F90E0805C9F4F821B910938
:1002D0008F73992708958FE891E00E945F0121E0D4
:1002E000892B09F420E0822F089580E090E0892B8B
:1002F00029F00E946B0181110C9400000895FC010B
:10030000A48DA80FB92FB11DA35ABF4F2C91848D76
:1003100090E001968F739927848FA689B7892C93D3
:10032000A089B1898C91837080648C93938D848D26
:10033000981306C00288F389E02D80818F7D808329
:100340000895EF92FF920F931F93CF93DF93EC01E9
:1003500081E0888F9B8D8C8D98131AC0E889F9896C
:10036000808185FF15C09FB7F894EE89FF8960836F
:10037000E889F98980818370806480839FBF81E0F0
:1003800090E0DF91CF911F910F91FF90EF90089532
:10039000F62E0B8D10E00F5F1F4F0F731127E02E0D
:1003A0008C8D8E110CC00FB607FCFACFE889F98945
:1003B000808185FFF5CFCE010E947F01F1CFEB8DCB
:1003C000EC0FFD2FF11DE35AFF4FF0829FB7F89419
:1003D0000B8FEA89FB8980818062CFCF682F8FE8FD
:1003E00091E00C94A101CF93DF93EC01888D8823D9
:1003F000B9F0AA89BB89E889F9898C9185FD03C088
:10040000808186FD0DC00FB607FCF7CF8C9185FF6C
:10041000F2CF808185FFEDCFCE010E947F01E9CF31
:10042000DF91CF910895FC0101900020E9F7319709
:10043000AF01481B590BBC018FE891E00C940101FE
:100440008F929F92AF92BF920F931F93CF93DF93A0
:10045000CDB7DEB7A1970FB6F894DEBF0FBECDBF04
:1004600019A2423008F44AE08E010F5D1F4F842E1E
:10047000912CB12CA12CA50194010E94250BE62FF3
:10048000B901CA01EA30F4F4E05DD801EE938D01C0
:10049000232B242B252B79F790E080E0109719F07F
:1004A000CD010E941302A1960FB6F894DEBF0FBED5
:1004B000CDBFDF91CF911F910F91BF90AF909F90D3
:1004C0008F900895E95CE1CF0C941302CF92DF92F4
:1004D000EF92FF92CF93DF936C01990FEE08FF0824
:1004E000F7FE17C08DE20E94EE01EC016627772728
:1004F000CB016C197D098E099F094AE00E942002F8
:100500008C0F9D1FDF91CF91FF90EF90DF90CF90E8
:1005100008954AE0C701B601DF91CF91FF90EF90B7
:10052000DF90CF900C9420024F925F926F927F9257
:100530008F929F92AF92BF92CF92DF92EF92FF92F3
:100540000F931F93CF936B017C01742EAC019B0121
:100550000E949C0D882399F080E291E0CF911F9139
:100560000F91FF90EF90DF90CF90BF90AF909F9052
:100570008F907F906F905F904F900C941302460184
:100580005701E894B7F82FEF3FEF4FE75FE7C5015A
:10059000B4010E949C0D81110DC02FEF3FEF4FE77A
:1005A0005FE7C501B4010E94C30B18161CF484E276
:1005B00091E0D4CF2FEF3FEF4FE75FE4C701B601E3
:1005C0000E94220D18161CF488E291E0C7CF2FEF8D
:1005D0003FEF4FE75FECC701B6010E94C30B87FDF9
:1005E000F3CF20E030E0A901C701B6010E94C30BA0
:1005F00010E000E087FF08C08DE20E94EE018C0150
:10060000F7FAF094F7F8F094C0E060E070E080E072
:100610009FE37C1641F020E030E040E251E40E948C
:10062000C80BCF5FF6CFA70196010E94570B2B0195
:100630003C010E94410C4B015C014AE00E942002F7
:100640007C01E00EF11ECC23B1F1C501B4010E9482
:10065000700C9B01AC01C301B2010E94560B4B010F
:100660005C018EE20E94EE01E80EF91EC15018F105
:1006700020E030E040E251E4C501B4010E94270DC2
:100680002B013C010E94410C4B01B12CA12C4AE0F2
:10069000C501B4010E942002E80EF91EC501B40193
:1006A0000E94700C9B01AC01C301B2010E94560B69
:1006B0004B015C01DBCFC701CF911F910F91FF90E0
:1006C000EF90DF90CF90BF90AF909F908F907F90F2
:1006D0006F905F904F900895CF92DF92EF92FF92CC
:1006E0006B017C01C114D104E104F10441F00E94CA
:1006F0009B0AA70196010E94F30A6B017C01C701C6
:10070000B601FF90EF90DF90CF9008958F929F9267
:10071000AF92BF92CF92DF92EF92FF92CF93DF938F
:10072000019709F05FC06091680170916901809143
:100730006A0190916B01C8E6D1E02AE037ED43EA07
:100740005DE30E94570B6B017C0123EC35EF48EC15
:1007500050E40E94220D18160CF44FC0C882D982B2
:10076000EA82FB82688179818A819B810E94940D53
:100770004B015C016AE070E080E090E00E946C0355
:100780006B017C0120E030E040E252E4C501B4019D
:100790000E94270D0E943A0C25E0C21AD108E108F8
:1007A000F108E601CC50DE4FC60FD71F809109013A
:1007B0008E3441F5C73282E0D80714F0C6E2D2E0A9
:1007C000C23C21E0D20714F4C2ECD1E0CE01DF91AB
:1007D000CF91FF90EF90DF90CF90BF90AF909F9020
:1007E0008F90089560916401709165018091660118
:1007F00090916701C4E6D1E0A0CF188219821A82D5
:100800001B82B0CF8035E1F56E010D2E000CEE0895
:10081000FF0869E170E080E090E00E946C036A509C
:100820007109810991096C0D7D1D8E1D9F1D6E3A08
:100830007140810591050CF472C069E170E080E0BF
:1008400090E00E946C036A50710981099109C60EFB
:10085000D71EE81EF91E8BE3C81682E0D806E10415
:10086000F1040CF05FC069E170E080E090E00E946C
:100870006C036A50710981099109C60FD71FA6CF71
:1008800064E670E080E090E00E946C0366357105DC
:100890008105910564F06CE370E080E090E00E94D7
:1008A0006C03645C7F4F8F4F9F4FC60FD71F6E0145
:1008B0000D2E000CEE08FF0863E270E080E090E08F
:1008C0000E946C036F507109810991096C0D7D1DA7
:1008D0008E1D9F1D603971408105910534F163E2E1
:1008E00070E080E090E00E946C036F507109810914
:1008F0009109C60ED71EE81EF91E8BE8C81682E0C5
:10090000D806E104F104A4F463E270E080E090E032
:100910000E946C036F50710981099109AECFCEEA34
:10092000D1E054CFCAE3D2E051CFC0E9D1E04ECFFD
:10093000CAE8D2E04BCF1F920F920FB60F9211244C
:100940002F933F938F939F93AF93BF9380918B018E
:1009500090918C01A0918D01B0918E0130918A010E
:1009600023E0230F2D3758F50196A11DB11D2093CB
:100970008A0180938B0190938C01A0938D01B09399
:100980008E018091860190918701A0918801B0919C
:1009900089010196A11DB11D809386019093870165
:1009A000A0938801B0938901BF91AF919F918F91DE
:1009B0003F912F910F900FBE0F901F90189526E832
:1009C000230F0296A11DB11DD2CF1F920F920FB619
:1009D0000F9211242F933F934F935F936F937F93C5
:1009E0008F939F93AF93BF93EF93FF938FE891E023
:1009F0000E947F01FF91EF91BF91AF919F918F91E5
:100A00007F916F915F914F913F912F910F900FBE0A
:100A10000F901F9018951F920F920FB60F921124EE
:100A20002F938F939F93EF93FF93E0919F01F0910A
:100A3000A0018081E091A501F091A60182FD1BC07B
:100A400090818091A8018F5F8F732091A9018217F7
:100A500041F0E091A801F0E0E157FE4F958F8093BF
:100A6000A801FF91EF919F918F912F910F900FBE51
:100A70000F901F9018958081F4CFCF93DF9300D013
:100A800000D0CDB7DEB7789484B5826084BD84B5DC
:100A9000816084BD85B5826085BD85B5816085BD79
:100AA00080916E00816080936E0010928100809131
:100AB00081008260809381008091810081608093B9
:100AC0008100809180008160809380008091B100DE
:100AD00084608093B1008091B00081608093B00009
:100AE00080917A00846080937A0080917A0082609D
:100AF00080937A0080917A00816080937A0080915F
:100B00007A00806880937A001092C100E0919F0182
:100B1000F091A00182E08083E0919B01F0919C0123
:100B20001082E0919D01F0919E0180E180831092FE
:100B3000A701E091A301F091A40186E08083E091F8
:100B4000A101F091A201808180618083E091A101E7
:100B5000F091A201808188608083E091A101F091F1
:100B6000A201808180688083E091A101F091A201BF
:100B700080818F7D808384E00E94960082E00E94C5
:100B8000960060E084E00E94B50060E082E00E9490
:100B9000B500A0E02A2EA0E03A2E01E013E58FB7C1
:100BA000F89440908B0150908C0160908D01709072
:100BB0008E018FBF8FE891E00E945F011816190621
:100BC0007CF48FE891E00E943D018E3421F0803565
:100BD00011F0833579F78093000100938101EACF0A
:100BE000C301B20128E93AE340E050E00E94250B3E
:100BF000683823E172078105910508F0E5C03EE4FD
:100C00003093090166E070E080E090E00E946C03A0
:100C10006B5B7F4F8F4F9F4F0E94720C609305015B
:100C20007093060180930701909308016FE070E0D4
:100C300080E090E00E946C03665F7F4F8F4F9F4F74
:100C40000E94720C60930101709302018093030172
:100C5000909304018091820190918301A09184017D
:100C6000B0918501A3019201281B390B4A0B5B0B44
:100C7000DA01C90184369105A105B10508F486C0E1
:100C800040928201509283016092840170928501AA
:100C900081E090E00E9486034C0182E090E00E9497
:100CA00086035C0160910501709106018091070146
:100CB000909108010E943A0C2B0160910101709102
:100CC000020180910301909104010E943A0C6B0192
:100CD00080910901833509F056C38CE291E00E94AE
:100CE0006402C4010E94660285E391E00E946402EE
:100CF000C5010E94660287E391E00E946402C2017E
:100D00000E94660280E491E00E946402C6010E9493
:100D1000660288E491E00E9464026091780170911B
:100D2000790180917A0190917B0142E00E949402C6
:100D300085E391E00E9464026091740170917501F5
:100D4000809176019091770142E00E94940285E3C0
:100D500091E00E9464026091700170917101809134
:100D600072019091730140E00E94940281E591E04C
:100D70000E946402809109010E94EE018DE591E0DC
:100D80000E94130280E691E00E941302809181018B
:100D9000882309F417C3809100018E3409F015C32C
:100DA00060E084E00E94B50060E082E00E94B5004F
:100DB0002114310409F4F3CE0E946B01882309F455
:100DC000EECE0E940000EBCE603147E27407810551
:100DD000910508F074C050E55093090168587341BB
:100DE000810991090E94700C20E030E44CE955E43F
:100DF0000E94C80B6B017C0120E030E040EA51E426
:100E00000E94270D20E030E046E952E40E94570B93
:100E10006093050170930601809307019093080188
:100E200020E030E040E752E4C701B6010E94270D00
:100E300020E030E040EA51E40E94570B609301014A
:100E400070930201809303019093040164E070E0C9
:100E500080E090E00E946C03625071098109910961
:100E60000E94720C9B01AC0160910501709106011A
:100E700080910701909108010E94570B6093050132
:100E80007093060180930701909308016FE070E072
:100E900080E090E00E946C0365507109810991091E
:100EA0000E94720C9B01AC016091010170910201E2
:100EB00080910301909104010E94570BC3CE1093BF
:100EC000090160517742810991090E94700C20E06C
:100ED00030E44CE955E40E94C80B69837A838B8324
:100EE0009C8320E030E04CE052E40E94270D9B01FF
:100EF000AC0160E070E08EEB92E40E94560B6093D0
:100F0000050170930601809307019093080120E08A
:100F100030E046E153E469817A818B819C810E94B3
:100F2000270D20E030E040EA52E40E94570B609326
:100F3000010170930201809303019093040164E026
:100F400070E080E090E00E946C03625071098109BA
:100F500091090E94720C9B01AC0160910501709196
:100F6000060180910701909108010E94570B609340
:100F700005017093060180930701909308016EE1CB
:100F800070E080E090E00E946C036A507109810972
:100F900091090E94720C209101013091020140914F
:100FA0000301509104010E94570B6B017C0180905A
:100FB000050190900601A0900701B090080120E083
:100FC00030E04CE552E4C501B4010E94C30B87FD3B
:100FD00093C120E030E048EC52E4C501B4010E9426
:100FE000220D18160CF48FC1809205019092060113
:100FF000A0920701B092080120E030E040E752E4FF
:10100000C701B6010E94C30B87FD84C120E030E018
:101010004CE853E4C701B6010E94220D18160CF4E7
:1010200080C1C0920101D0920201E0920301F092CE
:10103000040120E030E040E450E469817A818B8152
:101040009C810E94270D20E030E040E050E40E94A7
:10105000570B6B017C016CE271E080E090E00E9434
:101060006C0366597109810991090E94720C20E094
:1010700030E048EC52E40E94C80BA70196010E94A0
:10108000270D609378017093790180937A01909392
:101090007B016CE271E080E090E00E946C03685795
:1010A0007109810991090E94720C20E030E048EC3E
:1010B00052E40E94C80BA70196010E94270D60937D
:1010C000740170937501809376019093770164EBBE
:1010D00070E080E090E00E946C0360557109810926
:1010E00091090E94720CA70196010E94270D20E031
:1010F00030E045E754E40E94570B60937001709311
:101100007101809372019093730180916C019091B1
:101110006D01A0916E01B0916F01A3019201281B96
:10112000390B4A0B5B0BDA01C901C397A105B10565
:1011300008F474C040926C0150926D0160926E018F
:1011400070926F0168E270E080E090E00E946C03B2
:1011500064517109810991090E94720C20E030E00C
:1011600048EC52E40E94C80B9B01AC0160917801ED
:101170007091790180917A0190917B010E94570BC7
:10118000609378017093790180937A0190937B0149
:1011900068E270E080E090E00E946C0364517109A5
:1011A000810991090E94720C20E030E048EC52E481
:1011B0000E94C80B9B01AC01609174017091750194
:1011C00080917601909177010E94570B6093740192
:1011D0007093750180937601909377016EE170E0D2
:1011E00080E090E00E946C036F50710981099109C1
:1011F0000E94720C9B01AC016091700170917101B1
:1012000080917201909173010E94570B609370015D
:10121000709371018093720190937301C090780173
:10122000D0907901E0907A01F0907B0120E030E0ED
:1012300040E650ECC701B6010E94C30B87FD78C0A1
:1012400020E030E040E650E4C701B6010E94220DE4
:1012500018160CF474C0C0927801D0927901E09213
:101260007A01F0927B01C0907401D0907501E090FA
:101270007601F090770120E030E040E450ECC701C7
:10128000B6010E94C30B87FD61C020E030E040E85A
:1012900050E4C701B6010E94220D18160CF45DC07F
:1012A000C0927401D0927501E0927601F0927701BC
:1012B000C0907001D0907101E0907201F0907301C4
:1012C00020E030E041E654E4C701B6010E94C30BC0
:1012D00087FD4AC020E030E047E854E4C701B6018A
:1012E0000E94220D18160CF045C0C12CD12C87E8A5
:1012F000E82E84E4F82E3EC0812C912CFCE5AF2E24
:10130000F2E4BF2E71CE812C912CE8ECAE2EE2E4FB
:10131000BE2E6ACEC12CD12C70E7E72E72E4F72ED8
:1013200080CEC12CD12C6CE8E62E63E4F62E79CE6B
:10133000C12CD12C50E6E52E50ECF52E8CCFC12CD3
:10134000D12C40E6E42E40E4F42E85CFC12CD12CE4
:1013500030E4E32E30ECF32EA3CFC12CD12C20E8C7
:10136000E22E20E4F22E9CCFC12CD12C91E6E92E66
:1013700094E4F92EC0927001D0927101E092720152
:10138000F092730167CC8CE291E00E946402C40188
:101390000E94660285E391E00E946402C5010E94FA
:1013A000660287E391E00E946402C2010E94660225
:1013B00080E491E00E946402C6010E94660282E518
:1013C00091E0D6CC80910901E8CC61E08035A9F5A7
:1013D0002FB7F89480918B0190918C01A0918D0191
:1013E000B0918E012FBF40917D0150917E0160919F
:1013F0007F0170918001841B950BA60BB70B86397A
:101400009105A105B105E0F02FB7F89480918B010B
:1014100090918C01A0918D01B0918E012FBF80938E
:101420007D0190937E01A0937F01B0938001609134
:101430007C0131E0632760937C0184E00E94B50069
:1014400061E0B3CCEFE8F1E01382128288EE93E022
:10145000A0E0B0E084839583A683B78382E191E026
:101460009183808385EC90E09587848784EC90E07D
:101470009787868780EC90E0918B808B81EC90E061
:10148000938B828B82EC90E0958B848B86EC90E042
:10149000978B868B118E128E138E148E08958F92D9
:1014A0009F92AF92BF92CF92DF92EF92FF92CF9333
:1014B000DF93EC01688179818A819B8161157105D7
:1014C0008105910521F464E279ED8BE597E02DE14A
:1014D00033EF41E050E00E94F30A49015A019B01B9
:1014E000AC01A7EAB1E40E94120B6B017C01ACEEE7
:1014F000B4EFA50194010E94200BC60ED71EE81E72
:10150000F91EF7FE06C081E0C81AD108E10880E89C
:10151000F80AC882D982EA82FB82C701B6019F77A6
:10152000DF91CF91FF90EF90DF90CF90BF90AF9081
:101530009F908F9008958F929F92AF92BF92CF927B
:10154000DF92EF92FF9260910A0170910B018091FE
:101550000C0190910D01611571058105910521F432
:1015600064E279ED8BE597E02DE133EF41E050E067
:101570000E94F30A49015A019B01AC01A7EAB1E4B8
:101580000E94120B6B017C01ACEEB4EFA50194013B
:101590000E94200BC60ED71EE81EF91EF7FE06C0DD
:1015A00081E0C81AD108E10880E8F80AC0920A016F
:1015B000D0920B01E0920C01F0920D01C701B6012F
:1015C0009F77FF90EF90DF90CF90BF90AF909F906C
:1015D0008F90089560930A0170930B0180930C0122
:1015E00090930D010895052E97FB1EF400940E9420
:1015F0000A0B57FD07D00E94250B07FC03D04EF4C1
:101600000C940A0B50954095309521953F4F4F4FC4
:101610005F4F089590958095709561957F4F8F4F9E
:101620009F4F08950E94470BA59F900DB49F900D6A
:10163000A49F800D911D11240895B7FF0C94120BE7
:101640000E94120B821B930B0895A1E21A2EAA1B73
:10165000BB1BFD010DC0AA1FBB1FEE1FFF1FA21762
:10166000B307E407F50720F0A21BB30BE40BF50B5F
:10167000661F771F881F991F1A9469F760957095E8
:10168000809590959B01AC01BD01CF010895A29F6B
:10169000B001B39FC001A39F700D811D1124911D46
:1016A000B29F700D811D1124911D08955058BB27C4
:1016B000AA270E946E0B0C94E80C0E94DA0C38F0FA
:1016C0000E94E10C20F039F49F3F19F426F40C94A9
:1016D000D70C0EF4E095E7FB0C94D10CE92F0E9497
:1016E000F90C58F3BA17620773078407950720F0BF
:1016F00079F4A6F50C941B0D0EF4E0950B2EBA2F81
:10170000A02D0B01B90190010C01CA01A001112407
:10171000FF27591B99F0593F50F4503E68F11A16B3
:10172000F040A22F232F342F4427585FF3CF469544
:1017300037952795A795F0405395C9F77EF41F1666
:10174000BA0B620B730B840BBAF09150A1F0FF0F30
:10175000BB1F661F771F881FC2F70EC0BA0F621F1C
:10176000731F841F48F4879577956795B795F7950C
:101770009E3F08F0B0CF9395880F08F09927EE0FA1
:101780009795879508950E94AD0C08F481E008951F
:101790000E94DC0B0C94E80C0E94E10C58F00E94B3
:1017A000DA0C40F029F45F3F29F00C94D10C511170
:1017B0000C941C0D0C94D70C0E94F90C68F399231F
:1017C000B1F3552391F3951B550BBB27AA2762173D
:1017D0007307840738F09F5F5F4F220F331F441F4A
:1017E000AA1FA9F335D00E2E3AF0E0E832D091507E
:1017F0005040E695001CCAF72BD0FE2F29D0660F6B
:10180000771F881FBB1F261737074807AB07B0E8AD
:1018100009F0BB0B802DBF01FF2793585F4F3AF0B3
:101820009E3F510578F00C94D10C0C941C0D5F3F39
:10183000E4F3983ED4F3869577956795B795F79539
:101840009F5FC9F7880F911D9695879597F9089521
:10185000E1E0660F771F881FBB1F621773078407BD
:10186000BA0720F0621B730B840BBA0BEE1F88F7CC
:10187000E09508950E94410C6894B1110C941C0DE0
:1018800008950E94010D88F09F5798F0B92F99276D
:10189000B751B0F0E1F0660F771F881F991F1AF05B
:1018A000BA95C9F714C0B13091F00E941B0DB1E098
:1018B00008950C941B0D672F782F8827B85F39F097
:1018C000B93FCCF3869577956795B395D9F73EF4F4
:1018D00090958095709561957F4F8F4F9F4F08959C
:1018E000E89409C097FB3EF49095809570956195BA
:1018F0007F4F8F4F9F4F9923A9F0F92F96E9BB2770
:101900009395F695879577956795B795F111F8CFEB
:10191000FAF4BB0F11F460FF1BC06F5F7F4F8F4F56
:101920009F4F16C0882311F096E911C0772321F04C
:101930009EE8872F762F05C0662371F096E8862FE4
:1019400070E060E02AF09A95660F771F881FDAF73B
:10195000880F9695879597F90895990F0008550F68
:10196000AA0BE0E8FEEF16161706E807F907C0F025
:1019700012161306E407F50798F0621B730B840B2D
:10198000950B39F40A2661F0232B242B252B21F407
:1019900008950A2609F4A140A6958FEF811D811DA7
:1019A000089597F99F6780E870E060E008959FEFE1
:1019B00080EC089500240A941616170618060906E6
:1019C000089500240A9412161306140605060895B5
:1019D000092E0394000C11F4882352F0BB0F40F43D
:1019E000BF2B11F460FF04C06F5F7F4F8F4F9F4F7D
:1019F000089557FD9058440F551F59F05F3F71F0FF
:101A00004795880F97FB991F61F09F3F79F0879565
:101A10000895121613061406551FF2CF4695F1DFEE
:101A200008C0161617061806991FF1CF869571057E
:101A3000610508940895E894BB2766277727CB01B2
:101A400097F908950E94AD0C08F48FEF08950E9455
:101A50003A0D0C94E80C0E94DA0C38F00E94E10C6C
:101A600020F0952311F00C94D10C0C94D70C112478
:101A70000C941C0D0E94F90C70F3959FC1F3950F07
:101A800050E0551F629FF001729FBB27F00DB11D02
:101A9000639FAA27F00DB11DAA1F649F6627B00D92
:101AA000A11D661F829F2227B00DA11D621F739F7B
:101AB000B00DA11D621F839FA00D611D221F749F89
:101AC0003327A00D611D231F849F600D211D822FD0
:101AD000762F6A2F11249F5750409AF0F1F08823F7
:101AE0004AF0EE0FFF1FBB1F661F771F881F915024
:101AF0005040A9F79E3F510580F00C94D10C0C94F6
:101B00001C0D5F3FE4F3983ED4F386957795679577
:101B1000B795F795E7959F5FC1F7FE2B880F911D4D
:101B20009695879597F908959F930E94A30D0F901E
:101B300007FCEE5F0C94CC0D0E94AD0C880B990B4A
:101B400008950C94D70C0E94010DD8F3E894E0E0BE
:101B5000BB279F57F0F02AED3FE049EC06C0EE0F9F
:101B6000BB0F661F771F881F28F0B23A6207730702
:101B7000840728F0B25A620B730B840BE3959A9595
:101B800072F7803830F49A95BB0F661F771F881F55
:101B9000D2F790480C94E20DEF93E0FF07C0A2EA61
:101BA0002AED3FE049EC5FEB0E946E0B0E94E80CCF
:101BB0000F90039401FC9058E8E6F0E00C94EE0DD1
:101BC0009F3F31F0915020F4879577956795B795B1
:101BD000880F911D9695879597F908959F938F93F8
:101BE0007F936F93FF93EF939B01AC010E94270DAE
:101BF000EF91FF910E94020E2F913F914F915F91C3
:101C00000C94270DDF93CF931F930F93FF92EF92C6
:101C1000DF927B018C01689406C0DA2EEF010E94EE
:101C20003A0DFE01E894A591259135914591559184
:101C3000A6F3EF010E946E0BFE019701A801DA9452
:101C400069F7DF90EF90FF900F911F91CF91DF9197
:101C50000895EE0FFF1F0590F491E02D0994F8947C
:021C6000FFCFB4
:101C62004E0000A041000096424E0100000000001C
:101C72000000A10101012E01F3015F013D015101AB
:101C82006E616E00696E66006F7666007B22656526
:101C920067223A5B002C005D2C22656367223A00C2
:101CA2002C22656D67223A002C22616363223A5B23
:101CB200005D2C227374617465223A2200227D0039
:041CC2000D0A000007
:00000001FF
